:100000000C945C000C946E000C946E000C946E00CA
:100010000C946E000C946E000C946E000C946E00A8
:100020000C946E000C946E000C946E000C946E0098
:100030000C946E000C946E000C946E000C946E0088
:100040000C9463010C946E000C946E000C946E0082
:100050000C946E000C946E000C946E000C946E0068
:100060000C946E000C946E00000000080002010069
:100070000003040700000000000000000000000072
:10008000250028002B0000000000240027002A0083
:10009000040404040404040402020202020203032E
:1000A0000303030301020408102040800102040836
:1000B000102001020408102011241FBECFEFD8E049
:1000C000DEBFCDBF21E0A0E0B1E001C01D92A930AC
:1000D000B207E1F70E94AB010C9429020C940000D6
:1000E000CF93DF9300D000D0CDB7DEB73FB7F89401
:1000F0008091000190910101A0910201B091030152
:1001000026B5A89B05C02F3F19F00196A11DB11D72
:100110003FBFBA2FA92F982F8827820F911DA11DAD
:10012000B11D9C01AD0162E0220F331F441F551F1A
:100130006A95D1F7CA01B9010F900F900F900F90F7
:10014000DF91CF910895CF93DF9390E0FC01EC55C0
:10015000FF4F249180579F4FFC0184918823D1F059
:1001600090E0880F991FFC01EA57FF4FA591B491C9
:10017000FC01E458FF4FC591D49161110EC09FB7A7
:10018000F8948C91E22FE0958E238C932881E223C2
:10019000E8839FBFDF91CF9108958FB7F894EC91DA
:1001A000E22BEC938FBFF6CF90E0FC01E859FF4FB4
:1001B0002491FC01EC55FF4F3491FC01E057FF4FB7
:1001C000E491EE23D9F0222349F0243031F1B8F440
:1001D000223059F12330D9F0213019F1F0E0EE0F3F
:1001E000FF1FE458FF4FA591B4918FB7F894EC919D
:1001F000611124C030953E233C938FBF0895273072
:10020000B9F0283059F78091B0008F7D14C08091EB
:1002100080008F7780938000E1CF809180008F7D78
:10022000F9CF84B58F7784BDD9CF84B58F7DFBCFCF
:100230008091B0008F778093B000D0CF3E2BDCCF81
:100240008F929F92AF92BF92CF92DF92EF92FF92E6
:10025000CF93DF9300D000D0CDB7DEB70E947000FF
:100260006B017C0184E6882E912CA12CB12C0E947C
:100270007000DC01CB018C199D09AE09BF09883ED5
:100280009340A105B10598F321E0821A9108A108D5
:10029000B10888EEC80E83E0D81EE11CF11C811461
:1002A0009104A104B10419F70F900F900F900F90D3
:1002B000DF91CF91FF90EF90DF90CF90BF90AF9004
:1002C0009F908F9008951F921FB61F9211242F9315
:1002D0003F938F939F93AF93BF938091050190912C
:1002E0000601A0910701B09108013091040123E0BB
:1002F000230F2D3750F50196A11DB11D2093040148
:100300008093050190930601A0930701B093080123
:100310008091000190910101A0910201B09103012F
:100320000196A11DB11D8093000190930101A0933E
:100330000201B0930301BF91AF919F918F913F91C3
:100340002F911F901FBE1F90189526E8230F02962D
:10035000A11DB11DD3CF789484B5826084BD84B5CE
:10036000816084BD85B5826085BD85B5816085BDB0
:1003700080916E00816080936E0010928100809168
:1003800081008260809381008091810081608093F0
:100390008100809180008160809380008091B10015
:1003A00084608093B1008091B00081608093B00040
:1003B00080917A00846080937A0080917A008260D4
:1003C00080937A0080917A00816080937A00809196
:1003D0007A00806880937A001092C10060E083E028
:1003E0000E94D40060E084E00E94D40060E085E0D8
:1003F0000E94D40061E08DE00E94A30061E083E0F0
:100400000E94A30060E086E00E94A30061E084E017
:100410000E94A30060E087E00E94A30061E085E005
:100420000E94A30060E088E00E94A300C0E0D0E04A
:1004300061E08DE00E94D4000E94200160E08DE028
:100440000E94D4000E942001209791F30E94000096
:0C045000EFCFF8940C942C02F894FFCF2E
:00000001FF
