:100000000C945C000C946E000C946E000C946E00CA
:100010000C946E000C946E000C946E000C946E00A8
:100020000C946E000C946E000C946E000C946E0098
:100030000C946E000C946E000C946E000C946E0088
:100040000C9451010C946E000C946E000C946E0094
:100050000C946E000C946E000C946E000C946E0068
:100060000C946E000C946E00000000002400270029
:100070002A0000000000250028002B0004040404CE
:100080000404040402020202020203030303030342
:10009000010204081020408001020408102001021F
:1000A00004081020000000080002010000030407FB
:1000B000000000000000000011241FBECFEFD8E0B8
:1000C000DEBFCDBF21E0A0E0B1E001C01D92A930AC
:1000D000B207E1F70E9499010C9407020C9400000A
:1000E000CF93DF9300D000D0CDB7DEB73FB7F89401
:1000F0008091000190910101A0910201B091030152
:1001000026B5A89B05C02F3F19F00196A11DB11D72
:100110003FBFBA2FA92F982F8827820F911DA11DAD
:10012000B11D9C01AD0162E0220F331F441F551F1A
:100130006A95D1F7CA01B9010F900F900F900F90F7
:10014000DF91CF91089590E0FC01EC55FF4F249191
:10015000FC01E057FF4F3491FC01E458FF4FE4915C
:10016000EE23D9F0222349F0243031F1B8F42230C3
:1001700059F12330D9F0213019F1F0E0EE0FFF1FD3
:10018000EE58FF4FA591B4918FB7F894EC9161119F
:1001900024C030953E233C938FBF08952730B9F09B
:1001A000283059F78091B0008F7D14C08091800075
:1001B0008F7780938000E1CF809180008F7DF9CF91
:1001C00084B58F7784BDD9CF84B58F7DFBCF8091E7
:1001D000B0008F778093B000D0CF3E2BDCCF8F92D2
:1001E0009F92AF92BF92CF92DF92EF92FF92CF9306
:1001F000DF9300D000D0CDB7DEB70E9470006B0156
:100200007C0184E6882E912CA12CB12C0E947000D8
:10021000DC01CB018C199D09AE09BF09883E9340D2
:10022000A105B10598F321E0821A9108A108B1084F
:1002300088EEC80E83E0D81EE11CF11C81149104E5
:10024000A104B10419F70F900F900F900F90DF9158
:10025000CF91FF90EF90DF90CF90BF90AF909F90A5
:100260008F90089590E0FC01E057FF4F249184584F
:100270009F4FFC018491882399F090E0880F991F8B
:10028000FC01E859FF4FA591B491FC01EE58FF4FD6
:10029000859194918FB7F894EC91E22BEC938FBFFA
:1002A00008951F921FB61F9211242F933F938F938F
:1002B0009F93AF93BF938091050190910601A09108
:1002C0000701B09108013091040123E0230F2D377D
:1002D00050F50196A11DB11D2093040180930501E5
:1002E00090930601A0930701B0930801809100014B
:1002F00090910101A0910201B09103010196A11D0D
:10030000B11D8093000190930101A0930201B0936D
:100310000301BF91AF919F918F913F912F911F90BA
:100320001FBE1F90189526E8230F0296A11DB11D30
:10033000D3CF789484B5826084BD84B5816084BD58
:1003400085B5826085BD85B5816085BD80916E0073
:10035000816080936E0010928100809181008260A4
:1003600080938100809181008160809381008091E1
:1003700080008160809380008091B10084608093D0
:10038000B1008091B00081608093B00080917A00CC
:10039000846080937A0080917A00826080937A00F2
:1003A00080917A00816080937A0080917A008068E1
:1003B00080937A001092C10060E083E00E94A30065
:1003C00060E084E00E94A30060E085E00E94A3005A
:1003D0008DE00E94320183E00E94320184E00E949D
:1003E000320185E00E943201C0E0D0E061E08DE0A2
:1003F0000E94A3000E94EF0060E08DE00E94A30035
:100400000E94EF00209791F30E940000EFCFF89434
:080410000C940A02F894FFCFDE
:00000001FF
